{
  "address": "0xCf7Ed3AccA5a467e9e704C703E8D87F634fB0Fc9",
  "abi": [
    {
      "inputs": [
        {
          "internalType": "address",
          "name": "vrfCoordinatorV2",
          "type": "address"
        },
        {
          "internalType": "uint256",
          "name": "entranceFee",
          "type": "uint256"
        },
        {
          "internalType": "bytes32",
          "name": "gasLane",
          "type": "bytes32"
        },
        {
          "internalType": "uint64",
          "name": "subscriptionId",
          "type": "uint64"
        },
        {
          "internalType": "uint32",
          "name": "callbackGasLimit",
          "type": "uint32"
        },
        {
          "internalType": "uint256",
          "name": "interval",
          "type": "uint256"
        }
      ],
      "stateMutability": "nonpayable",
      "type": "constructor"
    },
    {
      "inputs": [
        {
          "internalType": "address",
          "name": "have",
          "type": "address"
        },
        {
          "internalType": "address",
          "name": "want",
          "type": "address"
        }
      ],
      "name": "OnlyCoordinatorCanFulfill",
      "type": "error"
    },
    {
      "inputs": [],
      "name": "Raffle__NotEnoughETHEntered",
      "type": "error"
    },
    {
      "inputs": [],
      "name": "Raffle__NotOpen",
      "type": "error"
    },
    {
      "inputs": [],
      "name": "Raffle__TransferFailed",
      "type": "error"
    },
    {
      "inputs": [
        {
          "internalType": "uint256",
          "name": "currentBalance",
          "type": "uint256"
        },
        {
          "internalType": "uint256",
          "name": "numPlayers",
          "type": "uint256"
        },
        {
          "internalType": "uint256",
          "name": "raffleState",
          "type": "uint256"
        }
      ],
      "name": "Raffle__UpkeepNotNeeded",
      "type": "error"
    },
    {
      "anonymous": false,
      "inputs": [
        {
          "indexed": true,
          "internalType": "address",
          "name": "player",
          "type": "address"
        }
      ],
      "name": "RaffleEnter",
      "type": "event"
    },
    {
      "anonymous": false,
      "inputs": [
        {
          "indexed": true,
          "internalType": "uint256",
          "name": "requestId",
          "type": "uint256"
        }
      ],
      "name": "RequestedRaffleWinner",
      "type": "event"
    },
    {
      "anonymous": false,
      "inputs": [
        {
          "indexed": true,
          "internalType": "address",
          "name": "winner",
          "type": "address"
        }
      ],
      "name": "WinnerPicked",
      "type": "event"
    },
    {
      "inputs": [
        {
          "internalType": "bytes",
          "name": "",
          "type": "bytes"
        }
      ],
      "name": "checkUpkeep",
      "outputs": [
        {
          "internalType": "bool",
          "name": "upkeepNeeded",
          "type": "bool"
        },
        {
          "internalType": "bytes",
          "name": "",
          "type": "bytes"
        }
      ],
      "stateMutability": "nonpayable",
      "type": "function"
    },
    {
      "inputs": [],
      "name": "enterRaffle",
      "outputs": [],
      "stateMutability": "payable",
      "type": "function"
    },
    {
      "inputs": [],
      "name": "getEntranceFee",
      "outputs": [
        {
          "internalType": "uint256",
          "name": "",
          "type": "uint256"
        }
      ],
      "stateMutability": "view",
      "type": "function"
    },
    {
      "inputs": [],
      "name": "getLastTimeStamp",
      "outputs": [
        {
          "internalType": "uint256",
          "name": "",
          "type": "uint256"
        }
      ],
      "stateMutability": "view",
      "type": "function"
    },
    {
      "inputs": [],
      "name": "getNumWords",
      "outputs": [
        {
          "internalType": "uint256",
          "name": "",
          "type": "uint256"
        }
      ],
      "stateMutability": "pure",
      "type": "function"
    },
    {
      "inputs": [],
      "name": "getNumberOfPlayers",
      "outputs": [
        {
          "internalType": "uint256",
          "name": "",
          "type": "uint256"
        }
      ],
      "stateMutability": "view",
      "type": "function"
    },
    {
      "inputs": [
        {
          "internalType": "uint256",
          "name": "index",
          "type": "uint256"
        }
      ],
      "name": "getPlayer",
      "outputs": [
        {
          "internalType": "address",
          "name": "",
          "type": "address"
        }
      ],
      "stateMutability": "view",
      "type": "function"
    },
    {
      "inputs": [],
      "name": "getRaffleState",
      "outputs": [
        {
          "internalType": "enum Raffle.RaffleState",
          "name": "",
          "type": "uint8"
        }
      ],
      "stateMutability": "view",
      "type": "function"
    },
    {
      "inputs": [],
      "name": "getRecentWinner",
      "outputs": [
        {
          "internalType": "address",
          "name": "",
          "type": "address"
        }
      ],
      "stateMutability": "view",
      "type": "function"
    },
    {
      "inputs": [],
      "name": "getRequestConfirmations",
      "outputs": [
        {
          "internalType": "uint256",
          "name": "",
          "type": "uint256"
        }
      ],
      "stateMutability": "pure",
      "type": "function"
    },
    {
      "inputs": [
        {
          "internalType": "bytes",
          "name": "",
          "type": "bytes"
        }
      ],
      "name": "performUpkeep",
      "outputs": [],
      "stateMutability": "nonpayable",
      "type": "function"
    },
    {
      "inputs": [],
      "name": "pickRandomWinner",
      "outputs": [],
      "stateMutability": "nonpayable",
      "type": "function"
    },
    {
      "inputs": [
        {
          "internalType": "uint256",
          "name": "requestId",
          "type": "uint256"
        },
        {
          "internalType": "uint256[]",
          "name": "randomWords",
          "type": "uint256[]"
        }
      ],
      "name": "rawFulfillRandomWords",
      "outputs": [],
      "stateMutability": "nonpayable",
      "type": "function"
    }
  ],
  "transactionHash": "0xcff45aff972cb63bc404ab5ab34eba3ac14fc5134f8696dc8d9d8285aaae72f7",
  "args": [
    "0x5FbDB2315678afecb367f032d93F642f64180aa3",
    "10000000000000000",
    "0x474e34a077df58807dbe9c96d3c009b23b3c6d0cce433e59bbf5b34f823bc56c",
    "1",
    "500000",
    "30"
  ],
  "numDeployments": 1,
  "solcInputHash": "1f6cd4ae7168ca2eb110615609ea9a66",
  "bytecode": "0x6101606040523480156200001257600080fd5b50604051620017f8380380620017f88339818101604052810190620000389190620001ad565b858073ffffffffffffffffffffffffffffffffffffffff1660808173ffffffffffffffffffffffffffffffffffffffff1660601b81525050508460a081815250508573ffffffffffffffffffffffffffffffffffffffff1660c08173ffffffffffffffffffffffffffffffffffffffff1660601b815250508360e081815250508267ffffffffffffffff166101008167ffffffffffffffff1660c01b815250508163ffffffff166101208163ffffffff1660e01b815250506000600160146101000a81548160ff02191690836001811115620001195762000118620002b5565b5b0217905550426002819055508061014081815250505050505050506200036b565b6000815190506200014b81620002e9565b92915050565b600081519050620001628162000303565b92915050565b60008151905062000179816200031d565b92915050565b600081519050620001908162000337565b92915050565b600081519050620001a78162000351565b92915050565b60008060008060008060c08789031215620001cd57620001cc620002e4565b5b6000620001dd89828a016200013a565b9650506020620001f089828a0162000168565b95505060406200020389828a0162000151565b94505060606200021689828a0162000196565b93505060806200022989828a016200017f565b92505060a06200023c89828a0162000168565b9150509295509295509295565b6000620002568262000267565b9050919050565b6000819050919050565b600073ffffffffffffffffffffffffffffffffffffffff82169050919050565b6000819050919050565b600063ffffffff82169050919050565b600067ffffffffffffffff82169050919050565b7f4e487b7100000000000000000000000000000000000000000000000000000000600052602160045260246000fd5b600080fd5b620002f48162000249565b81146200030057600080fd5b50565b6200030e816200025d565b81146200031a57600080fd5b50565b620003288162000287565b81146200033457600080fd5b50565b620003428162000291565b81146200034e57600080fd5b50565b6200035c81620002a1565b81146200036857600080fd5b50565b60805160601c60a05160c05160601c60e0516101005160c01c6101205160e01c61014051611418620003e060003960006107d8015260006106870152600061066401526000610643015260006106070152600081816102e601526103e3015260008181610323015261037701526114186000f3fe6080604052600436106100c25760003560e01c806353a2c19a1161007f578063898da22911610059578063898da22914610238578063c1c244e81461024f578063e55ae4e81461027a578063fd6673f5146102b7576100c2565b806353a2c19a146101a45780635f1b0fd8146101cf5780636e04ff0d146101fa576100c2565b806309bc33a7146100c7578063115cbaf5146100f25780631fe543e31461011d5780632cfcc539146101465780634585e33b14610150578063473f1ddc14610179575b600080fd5b3480156100d357600080fd5b506100dc6102e2565b6040516100e9919061101e565b60405180910390f35b3480156100fe57600080fd5b5061010761030a565b6040516101149190611003565b60405180910390f35b34801561012957600080fd5b50610144600480360381019061013f9190610df7565b610321565b005b61014e6103e1565b005b34801561015c57600080fd5b5061017760048036038101906101729190610d07565b610550565b005b34801561018557600080fd5b5061018e61074f565b60405161019b9190610f3c565b60405180910390f35b3480156101b057600080fd5b506101b9610779565b6040516101c6919061101e565b60405180910390f35b3480156101db57600080fd5b506101e4610788565b6040516101f1919061101e565b60405180910390f35b34801561020657600080fd5b50610221600480360381019061021c9190610d54565b610795565b60405161022f929190610f80565b60405180910390f35b34801561024457600080fd5b5061024d610842565b005b34801561025b57600080fd5b50610264610844565b604051610271919061101e565b60405180910390f35b34801561028657600080fd5b506102a1600480360381019061029c9190610d9d565b61084e565b6040516102ae9190610f3c565b60405180910390f35b3480156102c357600080fd5b506102cc610895565b6040516102d9919061101e565b60405180910390f35b60007f0000000000000000000000000000000000000000000000000000000000000000905090565b6000600160149054906101000a900460ff16905090565b7f000000000000000000000000000000000000000000000000000000000000000073ffffffffffffffffffffffffffffffffffffffff163373ffffffffffffffffffffffffffffffffffffffff16146103d357337f00000000000000000000000000000000000000000000000000000000000000006040517f1cf993f40000000000000000000000000000000000000000000000000000000081526004016103ca929190610f57565b60405180910390fd5b6103dd82826108a1565b5050565b7f000000000000000000000000000000000000000000000000000000000000000034101561043b576040517fbd4e069500000000000000000000000000000000000000000000000000000000815260040160405180910390fd5b6000600181111561044f5761044e6112f8565b5b600160149054906101000a900460ff166001811115610471576104706112f8565b5b146104a8576040517f1425571c00000000000000000000000000000000000000000000000000000000815260040160405180910390fd5b6000339080600181540180825580915050600190039060005260206000200160009091909190916101000a81548173ffffffffffffffffffffffffffffffffffffffff021916908373ffffffffffffffffffffffffffffffffffffffff1602179055503373ffffffffffffffffffffffffffffffffffffffff167f0805e1d667bddb8a95f0f09880cf94f403fb596ce79928d9f29b74203ba284d460405160405180910390a2565b600061056a60405180602001604052806000815250610795565b509050806105d95747600080549050600160149054906101000a900460ff16600181111561059b5761059a6112f8565b5b6040517f584327aa0000000000000000000000000000000000000000000000000000000081526004016105d093929190611039565b60405180910390fd5b60018060146101000a81548160ff021916908360018111156105fe576105fd6112f8565b5b021790555060007f000000000000000000000000000000000000000000000000000000000000000073ffffffffffffffffffffffffffffffffffffffff16635d3b1d307f00000000000000000000000000000000000000000000000000000000000000007f000000000000000000000000000000000000000000000000000000000000000060037f000000000000000000000000000000000000000000000000000000000000000060016040518663ffffffff1660e01b81526004016106c8959493929190610fb0565b602060405180830381600087803b1580156106e257600080fd5b505af11580156106f6573d6000803e3d6000fd5b505050506040513d601f19601f8201168201806040525081019061071a9190610dca565b9050807fcd6e45c8998311cab7e9d4385596cac867e20a0587194b954fa3a731c93ce78b60405160405180910390a250505050565b6000600160009054906101000a900473ffffffffffffffffffffffffffffffffffffffff16905090565b6000600163ffffffff16905090565b6000600361ffff16905090565b600060606000600160149054906101000a900460ff1660018111156107bd576107bc6112f8565b5b600060018111156107d1576107d06112f8565b5b14905060007f0000000000000000000000000000000000000000000000000000000000000000600254426108059190611119565b119050600080600080549050119050600080471190508380156108255750825b801561082e5750815b80156108375750805b955050505050915091565b565b6000600254905090565b600080828154811061086357610862611327565b5b9060005260206000200160009054906101000a900473ffffffffffffffffffffffffffffffffffffffff169050919050565b60008080549050905090565b60008080549050826000815181106108bc576108bb611327565b5b60200260200101516108ce9190611269565b905060008082815481106108e5576108e4611327565b5b9060005260206000200160009054906101000a900473ffffffffffffffffffffffffffffffffffffffff16905080600160006101000a81548173ffffffffffffffffffffffffffffffffffffffff021916908373ffffffffffffffffffffffffffffffffffffffff1602179055506000600160146101000a81548160ff02191690836001811115610979576109786112f8565b5b0217905550600067ffffffffffffffff81111561099957610998611356565b5b6040519080825280602002602001820160405280156109c75781602001602082028036833780820191505090505b50600090805190602001906109dd929190610ad2565b504260028190555060008173ffffffffffffffffffffffffffffffffffffffff1647604051610a0b90610f27565b60006040518083038185875af1925050503d8060008114610a48576040519150601f19603f3d011682016040523d82523d6000602084013e610a4d565b606091505b5050905080610a88576040517fa1d04b3900000000000000000000000000000000000000000000000000000000815260040160405180910390fd5b8173ffffffffffffffffffffffffffffffffffffffff167f5b690ec4a06fe979403046eaeea5b3ce38524683c3001f662c8b5a829632f7df60405160405180910390a25050505050565b828054828255906000526020600020908101928215610b4b579160200282015b82811115610b4a5782518260006101000a81548173ffffffffffffffffffffffffffffffffffffffff021916908373ffffffffffffffffffffffffffffffffffffffff16021790555091602001919060010190610af2565b5b509050610b589190610b5c565b5090565b5b80821115610b75576000816000905550600101610b5d565b5090565b6000610b8c610b8784611095565b611070565b90508083825260208201905082856020860282011115610baf57610bae61138f565b5b60005b85811015610bdf5781610bc58882610cdd565b845260208401935060208301925050600181019050610bb2565b5050509392505050565b6000610bfc610bf7846110c1565b611070565b905082815260208101848484011115610c1857610c17611394565b5b610c238482856111f6565b509392505050565b600082601f830112610c4057610c3f61138a565b5b8135610c50848260208601610b79565b91505092915050565b60008083601f840112610c6f57610c6e61138a565b5b8235905067ffffffffffffffff811115610c8c57610c8b611385565b5b602083019150836001820283011115610ca857610ca761138f565b5b9250929050565b600082601f830112610cc457610cc361138a565b5b8135610cd4848260208601610be9565b91505092915050565b600081359050610cec816113cb565b92915050565b600081519050610d01816113cb565b92915050565b60008060208385031215610d1e57610d1d61139e565b5b600083013567ffffffffffffffff811115610d3c57610d3b611399565b5b610d4885828601610c59565b92509250509250929050565b600060208284031215610d6a57610d6961139e565b5b600082013567ffffffffffffffff811115610d8857610d87611399565b5b610d9484828501610caf565b91505092915050565b600060208284031215610db357610db261139e565b5b6000610dc184828501610cdd565b91505092915050565b600060208284031215610de057610ddf61139e565b5b6000610dee84828501610cf2565b91505092915050565b60008060408385031215610e0e57610e0d61139e565b5b6000610e1c85828601610cdd565b925050602083013567ffffffffffffffff811115610e3d57610e3c611399565b5b610e4985828601610c2b565b9150509250929050565b610e5c8161114d565b82525050565b610e6b8161115f565b82525050565b610e7a8161116b565b82525050565b6000610e8b826110f2565b610e9581856110fd565b9350610ea5818560208601611205565b610eae816113a3565b840191505092915050565b610ec2816111e4565b82525050565b6000610ed560008361110e565b9150610ee0826113b4565b600082019050919050565b610ef481611188565b82525050565b610f03816111b6565b82525050565b610f12816111c0565b82525050565b610f21816111d0565b82525050565b6000610f3282610ec8565b9150819050919050565b6000602082019050610f516000830184610e53565b92915050565b6000604082019050610f6c6000830185610e53565b610f796020830184610e53565b9392505050565b6000604082019050610f956000830185610e62565b8181036020830152610fa78184610e80565b90509392505050565b600060a082019050610fc56000830188610e71565b610fd26020830187610f18565b610fdf6040830186610eeb565b610fec6060830185610f09565b610ff96080830184610f09565b9695505050505050565b60006020820190506110186000830184610eb9565b92915050565b60006020820190506110336000830184610efa565b92915050565b600060608201905061104e6000830186610efa565b61105b6020830185610efa565b6110686040830184610efa565b949350505050565b600061107a61108b565b90506110868282611238565b919050565b6000604051905090565b600067ffffffffffffffff8211156110b0576110af611356565b5b602082029050602081019050919050565b600067ffffffffffffffff8211156110dc576110db611356565b5b6110e5826113a3565b9050602081019050919050565b600081519050919050565b600082825260208201905092915050565b600081905092915050565b6000611124826111b6565b915061112f836111b6565b9250828210156111425761114161129a565b5b828203905092915050565b600061115882611196565b9050919050565b60008115159050919050565b6000819050919050565b6000819050611183826113b7565b919050565b600061ffff82169050919050565b600073ffffffffffffffffffffffffffffffffffffffff82169050919050565b6000819050919050565b600063ffffffff82169050919050565b600067ffffffffffffffff82169050919050565b60006111ef82611175565b9050919050565b82818337600083830152505050565b60005b83811015611223578082015181840152602081019050611208565b83811115611232576000848401525b50505050565b611241826113a3565b810181811067ffffffffffffffff821117156112605761125f611356565b5b80604052505050565b6000611274826111b6565b915061127f836111b6565b92508261128f5761128e6112c9565b5b828206905092915050565b7f4e487b7100000000000000000000000000000000000000000000000000000000600052601160045260246000fd5b7f4e487b7100000000000000000000000000000000000000000000000000000000600052601260045260246000fd5b7f4e487b7100000000000000000000000000000000000000000000000000000000600052602160045260246000fd5b7f4e487b7100000000000000000000000000000000000000000000000000000000600052603260045260246000fd5b7f4e487b7100000000000000000000000000000000000000000000000000000000600052604160045260246000fd5b600080fd5b600080fd5b600080fd5b600080fd5b600080fd5b600080fd5b6000601f19601f8301169050919050565b50565b600281106113c8576113c76112f8565b5b50565b6113d4816111b6565b81146113df57600080fd5b5056fea2646970667358221220aa741044603bb56ebd2c25806cbe77f1a9a69f18fc043bd33854cc750a81ff8164736f6c63430008070033",
  "devdoc": {
    "author": "Alex Oasian",
    "details": "This implements the Chainlink VRF Version 2",
    "kind": "dev",
    "methods": {
      "checkUpkeep(bytes)": {
        "details": "This is the function that the Chainlink Keeper nodes call they look for `upkeepNeeded` to return True. the following should be true for this to return true: 1. The time interval has passed between raffle runs. 2. The lottery is open. 3. The contract has ETH. 4. Implicity, your subscription is funded with LINK."
      }
    },
    "title": "A sample Raffle Contract",
    "version": 1
  },
  "userdoc": {
    "kind": "user",
    "methods": {},
    "notice": "This contract is for creating a sample raffle contract",
    "version": 1
  },
  "storageLayout": {
    "storage": [
      {
        "astId": 1427,
        "contract": "contracts/Raffle.sol:Raffle",
        "label": "s_players",
        "offset": 0,
        "slot": "0",
        "type": "t_array(t_address_payable)dyn_storage"
      },
      {
        "astId": 1444,
        "contract": "contracts/Raffle.sol:Raffle",
        "label": "s_recentWinner",
        "offset": 0,
        "slot": "1",
        "type": "t_address"
      },
      {
        "astId": 1447,
        "contract": "contracts/Raffle.sol:Raffle",
        "label": "s_raffleState",
        "offset": 20,
        "slot": "1",
        "type": "t_enum(RaffleState)1422"
      },
      {
        "astId": 1449,
        "contract": "contracts/Raffle.sol:Raffle",
        "label": "s_lastTimeStamp",
        "offset": 0,
        "slot": "2",
        "type": "t_uint256"
      }
    ],
    "types": {
      "t_address": {
        "encoding": "inplace",
        "label": "address",
        "numberOfBytes": "20"
      },
      "t_address_payable": {
        "encoding": "inplace",
        "label": "address payable",
        "numberOfBytes": "20"
      },
      "t_array(t_address_payable)dyn_storage": {
        "base": "t_address_payable",
        "encoding": "dynamic_array",
        "label": "address payable[]",
        "numberOfBytes": "32"
      },
      "t_enum(RaffleState)1422": {
        "encoding": "inplace",
        "label": "enum Raffle.RaffleState",
        "numberOfBytes": "1"
      },
      "t_uint256": {
        "encoding": "inplace",
        "label": "uint256",
        "numberOfBytes": "32"
      }
    }
  }
}