{
    "address": "0xe7f1725E7734CE288F8367e1Bb143E90bb3F0512",
    "abi": [
        {
            "inputs": [
                {
                    "internalType": "address",
                    "name": "s_priceFeedAddress",
                    "type": "address"
                }
            ],
            "stateMutability": "nonpayable",
            "type": "constructor"
        },
        {
            "inputs": [],
            "name": "FundMe_NotOwner",
            "type": "error"
        },
        {
            "inputs": [],
            "name": "MINIMUM_USD",
            "outputs": [
                {
                    "internalType": "uint256",
                    "name": "",
                    "type": "uint256"
                }
            ],
            "stateMutability": "view",
            "type": "function"
        },
        {
            "inputs": [],
            "name": "cheaperWithdraw",
            "outputs": [],
            "stateMutability": "payable",
            "type": "function"
        },
        {
            "inputs": [],
            "name": "fund",
            "outputs": [],
            "stateMutability": "payable",
            "type": "function"
        },
        {
            "inputs": [
                {
                    "internalType": "address",
                    "name": "funder",
                    "type": "address"
                }
            ],
            "name": "getAddressToAmountFunded",
            "outputs": [
                {
                    "internalType": "uint256",
                    "name": "",
                    "type": "uint256"
                }
            ],
            "stateMutability": "view",
            "type": "function"
        },
        {
            "inputs": [
                {
                    "internalType": "uint256",
                    "name": "index",
                    "type": "uint256"
                }
            ],
            "name": "getFunder",
            "outputs": [
                {
                    "internalType": "address",
                    "name": "",
                    "type": "address"
                }
            ],
            "stateMutability": "view",
            "type": "function"
        },
        {
            "inputs": [],
            "name": "getOwner",
            "outputs": [
                {
                    "internalType": "address",
                    "name": "",
                    "type": "address"
                }
            ],
            "stateMutability": "view",
            "type": "function"
        },
        {
            "inputs": [],
            "name": "getPriceFeed",
            "outputs": [
                {
                    "internalType": "contract AggregatorV3Interface",
                    "name": "",
                    "type": "address"
                }
            ],
            "stateMutability": "view",
            "type": "function"
        },
        {
            "inputs": [],
            "name": "s_priceFeed",
            "outputs": [
                {
                    "internalType": "contract AggregatorV3Interface",
                    "name": "",
                    "type": "address"
                }
            ],
            "stateMutability": "view",
            "type": "function"
        },
        {
            "inputs": [],
            "name": "withdraw",
            "outputs": [],
            "stateMutability": "nonpayable",
            "type": "function"
        }
    ],
    "transactionHash": "0xe20dc76bcfff02b0a089a0204abc31cb463550357f0f781232a7517c234b9c4a",
    "args": [
        "0x5FbDB2315678afecb367f032d93F642f64180aa3"
    ],
    "numDeployments": 1,
    "solcInputHash": "7e22f2a5fd86dcb0970bea2907bf084e",
    "bytecode": "0x60a06040523480156200001157600080fd5b506040516200174b3803806200174b833981810160405281019062000037919062000278565b620000826040518060400160405280602081526020017f54686520636f6e7374727563746f7220686173206265656e2063616c6c65642e8152506200010160201b6200090d1760201c565b3373ffffffffffffffffffffffffffffffffffffffff1660808173ffffffffffffffffffffffffffffffffffffffff1660601b8152505080600260006101000a81548173ffffffffffffffffffffffffffffffffffffffff021916908373ffffffffffffffffffffffffffffffffffffffff16021790555050620003a1565b620001a1816040516024016200011891906200034e565b6040516020818303038152906040527f41304fac000000000000000000000000000000000000000000000000000000007bffffffffffffffffffffffffffffffffffffffffffffffffffffffff19166020820180517bffffffffffffffffffffffffffffffffffffffffffffffffffffffff8381831617835250505050620001a460201b60201c565b50565b620001ca81620001c5620001cd60201b620009a617620001ee60201b60201c565b60201c565b50565b60006a636f6e736f6c652e6c6f679050600080835160208501845afa505050565b6200020260201b62000ac817819050919050565b6200020c62000372565b565b600080fd5b600073ffffffffffffffffffffffffffffffffffffffff82169050919050565b6000620002408262000213565b9050919050565b620002528162000233565b81146200025e57600080fd5b50565b600081519050620002728162000247565b92915050565b6000602082840312156200029157620002906200020e565b5b6000620002a18482850162000261565b91505092915050565b600081519050919050565b600082825260208201905092915050565b60005b83811015620002e6578082015181840152602081019050620002c9565b83811115620002f6576000848401525b50505050565b6000601f19601f8301169050919050565b60006200031a82620002aa565b620003268185620002b5565b935062000338818560208601620002c6565b6200034381620002fc565b840191505092915050565b600060208201905081810360008301526200036a81846200030d565b905092915050565b7f4e487b7100000000000000000000000000000000000000000000000000000000600052605160045260246000fd5b60805160601c61137d620003ce6000396000818161024c0152818161049a0152610623015261137d6000f3fe6080604052600436106100865760003560e01c8063893d20e811610059578063893d20e8146101355780639e87a5cd14610160578063b60d42881461018b578063be2693f014610195578063d7b4750c1461019f57610086565b80630343fb251461008b5780630ec3b027146100c85780633ccfd60b146100f35780636b69a5921461010a575b600080fd5b34801561009757600080fd5b506100b260048036038101906100ad9190610bdc565b6101dc565b6040516100bf9190610c22565b60405180910390f35b3480156100d457600080fd5b506100dd610224565b6040516100ea9190610c9c565b60405180910390f35b3480156100ff57600080fd5b5061010861024a565b005b34801561011657600080fd5b5061011f61048a565b60405161012c9190610c22565b60405180910390f35b34801561014157600080fd5b5061014a610496565b6040516101579190610cc6565b60405180910390f35b34801561016c57600080fd5b506101756104be565b6040516101829190610c9c565b60405180910390f35b6101936104e8565b005b61019d610621565b005b3480156101ab57600080fd5b506101c660048036038101906101c19190610d0d565b6108c5565b6040516101d39190610cc6565b60405180910390f35b60008060008373ffffffffffffffffffffffffffffffffffffffff1673ffffffffffffffffffffffffffffffffffffffff168152602001908152602001600020549050919050565b600260009054906101000a900473ffffffffffffffffffffffffffffffffffffffff1681565b7f000000000000000000000000000000000000000000000000000000000000000073ffffffffffffffffffffffffffffffffffffffff163373ffffffffffffffffffffffffffffffffffffffff16146102cf576040517f10e0797900000000000000000000000000000000000000000000000000000000815260040160405180910390fd5b60005b60018054905081101561037a576000600182815481106102f5576102f4610d3a565b5b9060005260206000200160009054906101000a900473ffffffffffffffffffffffffffffffffffffffff16905060008060008373ffffffffffffffffffffffffffffffffffffffff1673ffffffffffffffffffffffffffffffffffffffff1681526020019081526020016000208190555050808061037290610d98565b9150506102d2565b50600067ffffffffffffffff81111561039657610395610de1565b5b6040519080825280602002602001820160405280156103c45781602001602082028036833780820191505090505b50600190805190602001906103da929190610ad2565b5060003373ffffffffffffffffffffffffffffffffffffffff164760405161040190610e41565b60006040518083038185875af1925050503d806000811461043e576040519150601f19603f3d011682016040523d82523d6000602084013e610443565b606091505b5050905080610487576040517f08c379a000000000000000000000000000000000000000000000000000000000815260040161047e90610eb3565b60405180910390fd5b50565b678ac7230489e8000081565b60007f0000000000000000000000000000000000000000000000000000000000000000905090565b6000600260009054906101000a900473ffffffffffffffffffffffffffffffffffffffff16905090565b678ac7230489e80000610526600260009054906101000a900473ffffffffffffffffffffffffffffffffffffffff16346109c790919063ffffffff16565b1015610567576040517f08c379a000000000000000000000000000000000000000000000000000000000815260040161055e90610f1f565b60405180910390fd5b346000803373ffffffffffffffffffffffffffffffffffffffff1673ffffffffffffffffffffffffffffffffffffffff16815260200190815260200160002060008282546105b59190610f3f565b925050819055506001339080600181540180825580915050600190039060005260206000200160009091909190916101000a81548173ffffffffffffffffffffffffffffffffffffffff021916908373ffffffffffffffffffffffffffffffffffffffff160217905550565b7f000000000000000000000000000000000000000000000000000000000000000073ffffffffffffffffffffffffffffffffffffffff163373ffffffffffffffffffffffffffffffffffffffff16146106a6576040517f10e0797900000000000000000000000000000000000000000000000000000000815260040160405180910390fd5b6000600180548060200260200160405190810160405280929190818152602001828054801561072a57602002820191906000526020600020905b8160009054906101000a900473ffffffffffffffffffffffffffffffffffffffff1673ffffffffffffffffffffffffffffffffffffffff16815260200190600101908083116106e0575b5050505050905060005b81518110156107b457600082828151811061075257610751610d3a565b5b6020026020010151905060008060008373ffffffffffffffffffffffffffffffffffffffff1673ffffffffffffffffffffffffffffffffffffffff168152602001908152602001600020819055505080806107ac90610d98565b915050610734565b50600067ffffffffffffffff8111156107d0576107cf610de1565b5b6040519080825280602002602001820160405280156107fe5781602001602082028036833780820191505090505b5060019080519060200190610814929190610ad2565b5060003373ffffffffffffffffffffffffffffffffffffffff164760405161083b90610e41565b60006040518083038185875af1925050503d8060008114610878576040519150601f19603f3d011682016040523d82523d6000602084013e61087d565b606091505b50509050806108c1576040517f08c379a00000000000000000000000000000000000000000000000000000000081526004016108b890610eb3565b60405180910390fd5b5050565b6000600182815481106108db576108da610d3a565b5b9060005260206000200160009054906101000a900473ffffffffffffffffffffffffffffffffffffffff169050919050565b6109a381604051602401610921919061101d565b6040516020818303038152906040527f41304fac000000000000000000000000000000000000000000000000000000007bffffffffffffffffffffffffffffffffffffffffffffffffffffffff19166020820180517bffffffffffffffffffffffffffffffffffffffffffffffffffffffff8381831617835250505050610a03565b50565b60006a636f6e736f6c652e6c6f679050600080835160208501845afa505050565b6000806109d383610a1d565b90506000670de0b6b3a764000085836109ec919061103f565b6109f691906110c8565b9050809250505092915050565b610a1a81610a126109a6610abd565b63ffffffff16565b50565b6000808273ffffffffffffffffffffffffffffffffffffffff1663feaf968c6040518163ffffffff1660e01b815260040160a06040518083038186803b158015610a6657600080fd5b505afa158015610a7a573d6000803e3d6000fd5b505050506040513d601f19601f82011682018060405250810190610a9e9190611186565b5050509150506402540be40081610ab59190611201565b915050919050565b610ac8819050919050565b610ad0611318565b565b828054828255906000526020600020908101928215610b4b579160200282015b82811115610b4a5782518260006101000a81548173ffffffffffffffffffffffffffffffffffffffff021916908373ffffffffffffffffffffffffffffffffffffffff16021790555091602001919060010190610af2565b5b509050610b589190610b5c565b5090565b5b80821115610b75576000816000905550600101610b5d565b5090565b600080fd5b600073ffffffffffffffffffffffffffffffffffffffff82169050919050565b6000610ba982610b7e565b9050919050565b610bb981610b9e565b8114610bc457600080fd5b50565b600081359050610bd681610bb0565b92915050565b600060208284031215610bf257610bf1610b79565b5b6000610c0084828501610bc7565b91505092915050565b6000819050919050565b610c1c81610c09565b82525050565b6000602082019050610c376000830184610c13565b92915050565b6000819050919050565b6000610c62610c5d610c5884610b7e565b610c3d565b610b7e565b9050919050565b6000610c7482610c47565b9050919050565b6000610c8682610c69565b9050919050565b610c9681610c7b565b82525050565b6000602082019050610cb16000830184610c8d565b92915050565b610cc081610b9e565b82525050565b6000602082019050610cdb6000830184610cb7565b92915050565b610cea81610c09565b8114610cf557600080fd5b50565b600081359050610d0781610ce1565b92915050565b600060208284031215610d2357610d22610b79565b5b6000610d3184828501610cf8565b91505092915050565b7f4e487b7100000000000000000000000000000000000000000000000000000000600052603260045260246000fd5b7f4e487b7100000000000000000000000000000000000000000000000000000000600052601160045260246000fd5b6000610da382610c09565b91507fffffffffffffffffffffffffffffffffffffffffffffffffffffffffffffffff821415610dd657610dd5610d69565b5b600182019050919050565b7f4e487b7100000000000000000000000000000000000000000000000000000000600052604160045260246000fd5b600081905092915050565b50565b6000610e2b600083610e10565b9150610e3682610e1b565b600082019050919050565b6000610e4c82610e1e565b9150819050919050565b600082825260208201905092915050565b7f43616c6c206661696c6564000000000000000000000000000000000000000000600082015250565b6000610e9d600b83610e56565b9150610ea882610e67565b602082019050919050565b60006020820190508181036000830152610ecc81610e90565b9050919050565b7f596f75206e65656420746f207370656e64206d6f726520455448210000000000600082015250565b6000610f09601b83610e56565b9150610f1482610ed3565b602082019050919050565b60006020820190508181036000830152610f3881610efc565b9050919050565b6000610f4a82610c09565b9150610f5583610c09565b9250827fffffffffffffffffffffffffffffffffffffffffffffffffffffffffffffffff03821115610f8a57610f89610d69565b5b828201905092915050565b600081519050919050565b60005b83811015610fbe578082015181840152602081019050610fa3565b83811115610fcd576000848401525b50505050565b6000601f19601f8301169050919050565b6000610fef82610f95565b610ff98185610e56565b9350611009818560208601610fa0565b61101281610fd3565b840191505092915050565b600060208201905081810360008301526110378184610fe4565b905092915050565b600061104a82610c09565b915061105583610c09565b9250817fffffffffffffffffffffffffffffffffffffffffffffffffffffffffffffffff048311821515161561108e5761108d610d69565b5b828202905092915050565b7f4e487b7100000000000000000000000000000000000000000000000000000000600052601260045260246000fd5b60006110d382610c09565b91506110de83610c09565b9250826110ee576110ed611099565b5b828204905092915050565b600069ffffffffffffffffffff82169050919050565b611118816110f9565b811461112357600080fd5b50565b6000815190506111358161110f565b92915050565b6000819050919050565b61114e8161113b565b811461115957600080fd5b50565b60008151905061116b81611145565b92915050565b60008151905061118081610ce1565b92915050565b600080600080600060a086880312156111a2576111a1610b79565b5b60006111b088828901611126565b95505060206111c18882890161115c565b94505060406111d288828901611171565b93505060606111e388828901611171565b92505060806111f488828901611126565b9150509295509295909350565b600061120c8261113b565b91506112178361113b565b9250827f7fffffffffffffffffffffffffffffffffffffffffffffffffffffffffffffff048211600084136000841316161561125657611255610d69565b5b817f8000000000000000000000000000000000000000000000000000000000000000058312600084126000841316161561129357611292610d69565b5b827f800000000000000000000000000000000000000000000000000000000000000005821260008413600084121616156112d0576112cf610d69565b5b827f7fffffffffffffffffffffffffffffffffffffffffffffffffffffffffffffff058212600084126000841216161561130d5761130c610d69565b5b828202905092915050565b7f4e487b7100000000000000000000000000000000000000000000000000000000600052605160045260246000fdfea2646970667358221220b002b2459471fe587ef86d7c791a17d3d89f5a3e04b7be42c34ea93edeb4b4ca64736f6c63430008080033",
    "devdoc": {
        "author": "2",
        "details": "4",
        "kind": "dev",
        "methods": {
            "fund()": {
                "details": "2 param 3 returns 4"
            }
        },
        "title": "1",
        "version": 1
    },
    "userdoc": {
        "kind": "user",
        "methods": {
            "fund()": {
                "notice": "1"
            }
        },
        "notice": "3",
        "version": 1
    },
    "storageLayout": {
        "storage": [
            {
                "astId": 60,
                "contract": "contracts/FundMe.sol:FundMe",
                "label": "s_addressToAmountFunded",
                "offset": 0,
                "slot": "0",
                "type": "t_mapping(t_address,t_uint256)"
            },
            {
                "astId": 63,
                "contract": "contracts/FundMe.sol:FundMe",
                "label": "s_funders",
                "offset": 0,
                "slot": "1",
                "type": "t_array(t_address)dyn_storage"
            },
            {
                "astId": 75,
                "contract": "contracts/FundMe.sol:FundMe",
                "label": "s_priceFeed",
                "offset": 0,
                "slot": "2",
                "type": "t_contract(AggregatorV3Interface)45"
            }
        ],
        "types": {
            "t_address": {
                "encoding": "inplace",
                "label": "address",
                "numberOfBytes": "20"
            },
            "t_array(t_address)dyn_storage": {
                "base": "t_address",
                "encoding": "dynamic_array",
                "label": "address[]",
                "numberOfBytes": "32"
            },
            "t_contract(AggregatorV3Interface)45": {
                "encoding": "inplace",
                "label": "contract AggregatorV3Interface",
                "numberOfBytes": "20"
            },
            "t_mapping(t_address,t_uint256)": {
                "encoding": "mapping",
                "key": "t_address",
                "label": "mapping(address => uint256)",
                "numberOfBytes": "32",
                "value": "t_uint256"
            },
            "t_uint256": {
                "encoding": "inplace",
                "label": "uint256",
                "numberOfBytes": "32"
            }
        }
    }
}