{
  "_format": "hh-sol-artifact-1",
  "contractName": "Raffle",
  "sourceName": "contracts/Raffle.sol",
  "abi": [
    {
      "inputs": [
        {
          "internalType": "address",
          "name": "vrfCoordinatorV2",
          "type": "address"
        },
        {
          "internalType": "uint256",
          "name": "entranceFee",
          "type": "uint256"
        }
      ],
      "stateMutability": "nonpayable",
      "type": "constructor"
    },
    {
      "inputs": [
        {
          "internalType": "address",
          "name": "have",
          "type": "address"
        },
        {
          "internalType": "address",
          "name": "want",
          "type": "address"
        }
      ],
      "name": "OnlyCoordinatorCanFulfill",
      "type": "error"
    },
    {
      "inputs": [],
      "name": "Raffle__NotEnoughETHEntered",
      "type": "error"
    },
    {
      "anonymous": false,
      "inputs": [
        {
          "indexed": true,
          "internalType": "address",
          "name": "player",
          "type": "address"
        }
      ],
      "name": "RaffleEnter",
      "type": "event"
    },
    {
      "inputs": [],
      "name": "enterRaffle",
      "outputs": [],
      "stateMutability": "payable",
      "type": "function"
    },
    {
      "inputs": [],
      "name": "getEntranceFee",
      "outputs": [
        {
          "internalType": "uint256",
          "name": "",
          "type": "uint256"
        }
      ],
      "stateMutability": "view",
      "type": "function"
    },
    {
      "inputs": [
        {
          "internalType": "uint256",
          "name": "index",
          "type": "uint256"
        }
      ],
      "name": "getPlayer",
      "outputs": [
        {
          "internalType": "address",
          "name": "",
          "type": "address"
        }
      ],
      "stateMutability": "view",
      "type": "function"
    },
    {
      "inputs": [],
      "name": "pickRandomWinner",
      "outputs": [],
      "stateMutability": "nonpayable",
      "type": "function"
    },
    {
      "inputs": [
        {
          "internalType": "uint256",
          "name": "requestId",
          "type": "uint256"
        },
        {
          "internalType": "uint256[]",
          "name": "randomWords",
          "type": "uint256[]"
        }
      ],
      "name": "rawFulfillRandomWords",
      "outputs": [],
      "stateMutability": "nonpayable",
      "type": "function"
    },
    {
      "inputs": [],
      "name": "requestRandomWinner",
      "outputs": [],
      "stateMutability": "nonpayable",
      "type": "function"
    }
  ],
  "bytecode": "0x60c060405234801561001057600080fd5b5060405161082c38038061082c833981810160405281019061003291906100a4565b818073ffffffffffffffffffffffffffffffffffffffff1660808173ffffffffffffffffffffffffffffffffffffffff1660601b81525050508060a081815250505050610153565b60008151905061008981610125565b92915050565b60008151905061009e8161013c565b92915050565b600080604083850312156100bb576100ba610120565b5b60006100c98582860161007a565b92505060206100da8582860161008f565b9150509250929050565b60006100ef826100f6565b9050919050565b600073ffffffffffffffffffffffffffffffffffffffff82169050919050565b6000819050919050565b600080fd5b61012e816100e4565b811461013957600080fd5b50565b61014581610116565b811461015057600080fd5b50565b60805160601c60a0516106a361018960003960008181610127015261020d01526000818161014d01526101a101526106a36000f3fe6080604052600436106100555760003560e01c806309bc33a71461005a5780631fe543e3146100855780632cfcc539146100ae578063522a1f0b146100b8578063898da229146100cf578063e55ae4e8146100e6575b600080fd5b34801561006657600080fd5b5061006f610123565b60405161007c91906104fa565b60405180910390f35b34801561009157600080fd5b506100ac60048036038101906100a7919061043c565b61014b565b005b6100b661020b565b005b3480156100c457600080fd5b506100cd61030d565b005b3480156100db57600080fd5b506100e461030f565b005b3480156100f257600080fd5b5061010d6004803603810190610108919061040f565b610311565b60405161011a91906104b6565b60405180910390f35b60007f0000000000000000000000000000000000000000000000000000000000000000905090565b7f000000000000000000000000000000000000000000000000000000000000000073ffffffffffffffffffffffffffffffffffffffff163373ffffffffffffffffffffffffffffffffffffffff16146101fd57337f00000000000000000000000000000000000000000000000000000000000000006040517f1cf993f40000000000000000000000000000000000000000000000000000000081526004016101f49291906104d1565b60405180910390fd5b6102078282610358565b5050565b7f0000000000000000000000000000000000000000000000000000000000000000341015610265576040517fbd4e069500000000000000000000000000000000000000000000000000000000815260040160405180910390fd5b6000339080600181540180825580915050600190039060005260206000200160009091909190916101000a81548173ffffffffffffffffffffffffffffffffffffffff021916908373ffffffffffffffffffffffffffffffffffffffff1602179055503373ffffffffffffffffffffffffffffffffffffffff167f0805e1d667bddb8a95f0f09880cf94f403fb596ce79928d9f29b74203ba284d460405160405180910390a2565b565b565b6000808281548110610326576103256105d3565b5b9060005260206000200160009054906101000a900473ffffffffffffffffffffffffffffffffffffffff169050919050565b5050565b600061036f61036a8461053a565b610515565b9050808382526020820190508285602086028201111561039257610391610636565b5b60005b858110156103c257816103a888826103fa565b845260208401935060208301925050600181019050610395565b5050509392505050565b600082601f8301126103e1576103e0610631565b5b81356103f184826020860161035c565b91505092915050565b60008135905061040981610656565b92915050565b60006020828403121561042557610424610640565b5b6000610433848285016103fa565b91505092915050565b6000806040838503121561045357610452610640565b5b6000610461858286016103fa565b925050602083013567ffffffffffffffff8111156104825761048161063b565b5b61048e858286016103cc565b9150509250929050565b6104a181610566565b82525050565b6104b081610598565b82525050565b60006020820190506104cb6000830184610498565b92915050565b60006040820190506104e66000830185610498565b6104f36020830184610498565b9392505050565b600060208201905061050f60008301846104a7565b92915050565b600061051f610530565b905061052b82826105a2565b919050565b6000604051905090565b600067ffffffffffffffff82111561055557610554610602565b5b602082029050602081019050919050565b600061057182610578565b9050919050565b600073ffffffffffffffffffffffffffffffffffffffff82169050919050565b6000819050919050565b6105ab82610645565b810181811067ffffffffffffffff821117156105ca576105c9610602565b5b80604052505050565b7f4e487b7100000000000000000000000000000000000000000000000000000000600052603260045260246000fd5b7f4e487b7100000000000000000000000000000000000000000000000000000000600052604160045260246000fd5b600080fd5b600080fd5b600080fd5b600080fd5b6000601f19601f8301169050919050565b61065f81610598565b811461066a57600080fd5b5056fea2646970667358221220bedc55a829d37b4c033126881346738400eb2d2eca96439bec2f49aa6a277f9464736f6c63430008070033",
  "linkReferences": {},
  "deployedLinkReferences": {}
}