{
  "_format": "hh-sol-artifact-1",
  "contractName": "Raffle",
  "sourceName": "contracts/Raffle.sol",
  "abi": [
    {
      "inputs": [
        {
          "internalType": "address",
          "name": "vrfCoordinatorV2",
          "type": "address"
        },
        {
          "internalType": "uint256",
          "name": "entranceFee",
          "type": "uint256"
        },
        {
          "internalType": "bytes32",
          "name": "gasLane",
          "type": "bytes32"
        },
        {
          "internalType": "uint64",
          "name": "subscriptionId",
          "type": "uint64"
        },
        {
          "internalType": "uint32",
          "name": "callbackGasLimit",
          "type": "uint32"
        },
        {
          "internalType": "uint256",
          "name": "interval",
          "type": "uint256"
        }
      ],
      "stateMutability": "nonpayable",
      "type": "constructor"
    },
    {
      "inputs": [
        {
          "internalType": "address",
          "name": "have",
          "type": "address"
        },
        {
          "internalType": "address",
          "name": "want",
          "type": "address"
        }
      ],
      "name": "OnlyCoordinatorCanFulfill",
      "type": "error"
    },
    {
      "inputs": [],
      "name": "Raffle__NotEnoughETHEntered",
      "type": "error"
    },
    {
      "inputs": [],
      "name": "Raffle__NotOpen",
      "type": "error"
    },
    {
      "inputs": [],
      "name": "Raffle__TransferFailed",
      "type": "error"
    },
    {
      "inputs": [
        {
          "internalType": "uint256",
          "name": "currentBalance",
          "type": "uint256"
        },
        {
          "internalType": "uint256",
          "name": "numPlayers",
          "type": "uint256"
        },
        {
          "internalType": "uint256",
          "name": "raffleState",
          "type": "uint256"
        }
      ],
      "name": "Raffle__UpkeepNotNeeded",
      "type": "error"
    },
    {
      "anonymous": false,
      "inputs": [
        {
          "indexed": true,
          "internalType": "address",
          "name": "player",
          "type": "address"
        }
      ],
      "name": "RaffleEnter",
      "type": "event"
    },
    {
      "anonymous": false,
      "inputs": [
        {
          "indexed": true,
          "internalType": "uint256",
          "name": "requestId",
          "type": "uint256"
        }
      ],
      "name": "RequestedRaffleWinner",
      "type": "event"
    },
    {
      "anonymous": false,
      "inputs": [
        {
          "indexed": true,
          "internalType": "address",
          "name": "winner",
          "type": "address"
        }
      ],
      "name": "WinnerPicked",
      "type": "event"
    },
    {
      "inputs": [
        {
          "internalType": "bytes",
          "name": "",
          "type": "bytes"
        }
      ],
      "name": "checkUpkeep",
      "outputs": [
        {
          "internalType": "bool",
          "name": "upkeepNeeded",
          "type": "bool"
        },
        {
          "internalType": "bytes",
          "name": "",
          "type": "bytes"
        }
      ],
      "stateMutability": "nonpayable",
      "type": "function"
    },
    {
      "inputs": [],
      "name": "enterRaffle",
      "outputs": [],
      "stateMutability": "payable",
      "type": "function"
    },
    {
      "inputs": [],
      "name": "getEntranceFee",
      "outputs": [
        {
          "internalType": "uint256",
          "name": "",
          "type": "uint256"
        }
      ],
      "stateMutability": "view",
      "type": "function"
    },
    {
      "inputs": [],
      "name": "getInterval",
      "outputs": [
        {
          "internalType": "uint256",
          "name": "",
          "type": "uint256"
        }
      ],
      "stateMutability": "view",
      "type": "function"
    },
    {
      "inputs": [],
      "name": "getLastTimeStamp",
      "outputs": [
        {
          "internalType": "uint256",
          "name": "",
          "type": "uint256"
        }
      ],
      "stateMutability": "view",
      "type": "function"
    },
    {
      "inputs": [],
      "name": "getNumWords",
      "outputs": [
        {
          "internalType": "uint256",
          "name": "",
          "type": "uint256"
        }
      ],
      "stateMutability": "pure",
      "type": "function"
    },
    {
      "inputs": [],
      "name": "getNumberOfPlayers",
      "outputs": [
        {
          "internalType": "uint256",
          "name": "",
          "type": "uint256"
        }
      ],
      "stateMutability": "view",
      "type": "function"
    },
    {
      "inputs": [
        {
          "internalType": "uint256",
          "name": "index",
          "type": "uint256"
        }
      ],
      "name": "getPlayer",
      "outputs": [
        {
          "internalType": "address",
          "name": "",
          "type": "address"
        }
      ],
      "stateMutability": "view",
      "type": "function"
    },
    {
      "inputs": [],
      "name": "getRaffleState",
      "outputs": [
        {
          "internalType": "enum Raffle.RaffleState",
          "name": "",
          "type": "uint8"
        }
      ],
      "stateMutability": "view",
      "type": "function"
    },
    {
      "inputs": [],
      "name": "getRecentWinner",
      "outputs": [
        {
          "internalType": "address",
          "name": "",
          "type": "address"
        }
      ],
      "stateMutability": "view",
      "type": "function"
    },
    {
      "inputs": [],
      "name": "getRequestConfirmations",
      "outputs": [
        {
          "internalType": "uint256",
          "name": "",
          "type": "uint256"
        }
      ],
      "stateMutability": "pure",
      "type": "function"
    },
    {
      "inputs": [
        {
          "internalType": "bytes",
          "name": "",
          "type": "bytes"
        }
      ],
      "name": "performUpkeep",
      "outputs": [],
      "stateMutability": "nonpayable",
      "type": "function"
    },
    {
      "inputs": [
        {
          "internalType": "uint256",
          "name": "requestId",
          "type": "uint256"
        },
        {
          "internalType": "uint256[]",
          "name": "randomWords",
          "type": "uint256[]"
        }
      ],
      "name": "rawFulfillRandomWords",
      "outputs": [],
      "stateMutability": "nonpayable",
      "type": "function"
    }
  ],
  "bytecode": "0x6101606040523480156200001257600080fd5b5060405162001fb938038062001fb98339818101604052810190620000389190620002ac565b858073ffffffffffffffffffffffffffffffffffffffff1660808173ffffffffffffffffffffffffffffffffffffffff1660601b81525050506200008d67ed28e285d9a4146560c01b6200023660201b60201c565b620000a967ad30f1b1e3d8e67960c01b6200023660201b60201c565b8460a08181525050620000cd6756e94ff1ea6b215e60c01b6200023660201b60201c565b8573ffffffffffffffffffffffffffffffffffffffff1660c08173ffffffffffffffffffffffffffffffffffffffff1660601b81525050620001206720f470fc5aea3be660c01b6200023660201b60201c565b8360e0818152505062000144675a6594bbff90b23a60c01b6200023660201b60201c565b8267ffffffffffffffff166101008167ffffffffffffffff1660c01b815250506200018067e80b3808f2ab7dba60c01b6200023660201b60201c565b8163ffffffff166101208163ffffffff1660e01b81525050620001b4675e31f38095ddbb6060c01b6200023660201b60201c565b6000600160146101000a81548160ff02191690836001811115620001dd57620001dc620003b4565b5b0217905550620001fe6795008cc9b633a06a60c01b6200023660201b60201c565b42600281905550620002216789348a7c1b13bfbd60c01b6200023660201b60201c565b8061014081815250505050505050506200046a565b50565b6000815190506200024a81620003e8565b92915050565b600081519050620002618162000402565b92915050565b60008151905062000278816200041c565b92915050565b6000815190506200028f8162000436565b92915050565b600081519050620002a68162000450565b92915050565b60008060008060008060c08789031215620002cc57620002cb620003e3565b5b6000620002dc89828a0162000239565b9650506020620002ef89828a0162000267565b95505060406200030289828a0162000250565b94505060606200031589828a0162000295565b93505060806200032889828a016200027e565b92505060a06200033b89828a0162000267565b9150509295509295509295565b6000620003558262000366565b9050919050565b6000819050919050565b600073ffffffffffffffffffffffffffffffffffffffff82169050919050565b6000819050919050565b600063ffffffff82169050919050565b600067ffffffffffffffff82169050919050565b7f4e487b7100000000000000000000000000000000000000000000000000000000600052602160045260246000fd5b600080fd5b620003f38162000348565b8114620003ff57600080fd5b50565b6200040d816200035c565b81146200041957600080fd5b50565b620004278162000386565b81146200043357600080fd5b50565b620004418162000390565b81146200044d57600080fd5b50565b6200045b81620003a0565b81146200046757600080fd5b50565b60805160601c60a05160c05160601c60e0516101005160c01c6101205160e01c61014051611ad3620004e660003960008181610bac0152610cba0152600061091b015260006108f8015260006108d70152600061089b01526000818161033601526104ab0152600081816103af01526104030152611ad36000f3fe6080604052600436106100c25760003560e01c806353a2c19a1161007f57806391ad27b41161005957806391ad27b414610238578063c1c244e814610263578063e55ae4e81461028e578063fd6673f5146102cb576100c2565b806353a2c19a146101a45780635f1b0fd8146101cf5780636e04ff0d146101fa576100c2565b806309bc33a7146100c7578063115cbaf5146100f25780631fe543e31461011d5780632cfcc539146101465780634585e33b14610150578063473f1ddc14610179575b600080fd5b3480156100d357600080fd5b506100dc6102f6565b6040516100e991906116d9565b60405180910390f35b3480156100fe57600080fd5b5061010761035a565b60405161011491906116be565b60405180910390f35b34801561012957600080fd5b50610144600480360381019061013f91906114b2565b6103ad565b005b61014e61046d565b005b34801561015c57600080fd5b50610177600480360381019061017291906113c2565b610708565b005b34801561018557600080fd5b5061018e610a0b565b60405161019b91906115f7565b60405180910390f35b3480156101b057600080fd5b506101b9610a71565b6040516101c691906116d9565b60405180910390f35b3480156101db57600080fd5b506101e4610abc565b6040516101f191906116d9565b60405180910390f35b34801561020657600080fd5b50610221600480360381019061021c919061140f565b610b05565b60405161022f92919061163b565b60405180910390f35b34801561024457600080fd5b5061024d610c7a565b60405161025a91906116d9565b60405180910390f35b34801561026f57600080fd5b50610278610cde565b60405161028591906116d9565b60405180910390f35b34801561029a57600080fd5b506102b560048036038101906102b09190611458565b610d24565b6040516102c291906115f7565b60405180910390f35b3480156102d757600080fd5b506102e0610da8565b6040516102ed91906116d9565b60405180910390f35b600061030c671072bf50b0fa538960c01b610df1565b61032067af1530a365c916e360c01b610df1565b6103346772e321279b70dabb60c01b610df1565b7f0000000000000000000000000000000000000000000000000000000000000000905090565b600061037067a0e5d0f7c6e1280460c01b610df1565b610384673882b310a852c00660c01b610df1565b610398671b14d0235cc5a18560c01b610df1565b600160149054906101000a900460ff16905090565b7f000000000000000000000000000000000000000000000000000000000000000073ffffffffffffffffffffffffffffffffffffffff163373ffffffffffffffffffffffffffffffffffffffff161461045f57337f00000000000000000000000000000000000000000000000000000000000000006040517f1cf993f4000000000000000000000000000000000000000000000000000000008152600401610456929190611612565b60405180910390fd5b6104698282610df4565b5050565b6104816777d48e3b940da40360c01b610df1565b61049567ac6e62f0f7437fc360c01b610df1565b6104a9672b701ff60d1d9d8a60c01b610df1565b7f000000000000000000000000000000000000000000000000000000000000000034101561052b576104e567c2547a07b797a1ae60c01b610df1565b6104f9671b6099a3982e711860c01b610df1565b6040517fbd4e069500000000000000000000000000000000000000000000000000000000815260040160405180910390fd5b61053f67b4a8218b6e1768d460c01b610df1565b61055367048ed3895a795fc060c01b610df1565b61056767bc3b041045dbefd360c01b610df1565b6000600181111561057b5761057a6119b3565b5b600160149054906101000a900460ff16600181111561059d5761059c6119b3565b5b146105fc576105b667b56f6bcea54dce2a60c01b610df1565b6105ca6790f199aa103f714d60c01b610df1565b6040517f1425571c00000000000000000000000000000000000000000000000000000000815260040160405180910390fd5b6106106747b2e022ca6a202460c01b610df1565b61062467f5bc5c2c0fe05d4660c01b610df1565b610638679dd5a2b97f5e318d60c01b610df1565b6000339080600181540180825580915050600190039060005260206000200160009091909190916101000a81548173ffffffffffffffffffffffffffffffffffffffff021916908373ffffffffffffffffffffffffffffffffffffffff1602179055506106af677e0bd1a05f42c8b560c01b610df1565b6106c36718d0510636bdb03a60c01b610df1565b3373ffffffffffffffffffffffffffffffffffffffff167f0805e1d667bddb8a95f0f09880cf94f403fb596ce79928d9f29b74203ba284d460405160405180910390a2565b61071c675d73241ca8ee0ff360c01b610df1565b610730677636d1bd5e08668060c01b610df1565b6107446703dddc0a6dc0ac9a60c01b610df1565b600061075e60405180602001604052806000815250610b05565b50905061077567125f9c9c9a8ddcad60c01b610df1565b610789673715edb39a81384060c01b610df1565b8061081d576107a26791132c76f6696bbf60c01b610df1565b6107b6677a82a5e9f1e381bb60c01b610df1565b47600080549050600160149054906101000a900460ff1660018111156107df576107de6119b3565b5b6040517f584327aa000000000000000000000000000000000000000000000000000000008152600401610814939291906116f4565b60405180910390fd5b6108316714d32d034921dea860c01b610df1565b61084567d5b0e99e05555c6260c01b610df1565b60018060146101000a81548160ff0219169083600181111561086a576108696119b3565b5b021790555061088367da671a9cfad24c3460c01b610df1565b61089767150a1a5e29095a3260c01b610df1565b60007f000000000000000000000000000000000000000000000000000000000000000073ffffffffffffffffffffffffffffffffffffffff16635d3b1d307f00000000000000000000000000000000000000000000000000000000000000007f000000000000000000000000000000000000000000000000000000000000000060037f000000000000000000000000000000000000000000000000000000000000000060016040518663ffffffff1660e01b815260040161095c95949392919061166b565b602060405180830381600087803b15801561097657600080fd5b505af115801561098a573d6000803e3d6000fd5b505050506040513d601f19601f820116820180604052508101906109ae9190611485565b90506109c4676167f57cd8f6bc8360c01b610df1565b6109d86797f167d6c38edd7b60c01b610df1565b807fcd6e45c8998311cab7e9d4385596cac867e20a0587194b954fa3a731c93ce78b60405160405180910390a250505050565b6000610a2167f1388b4872dbd42e60c01b610df1565b610a356747bde47ac71c6ab960c01b610df1565b610a4967cfe7f83201f1506e60c01b610df1565b600160009054906101000a900473ffffffffffffffffffffffffffffffffffffffff16905090565b6000610a876728ff3b07617cf46560c01b610df1565b610a9b67579003460d8f5d3c60c01b610df1565b610aaf67a97f9c09f73b6e7d60c01b610df1565b600163ffffffff16905090565b6000610ad26754723568444e885760c01b610df1565b610ae667f4cb89278bc86a2c60c01b610df1565b610afa67b13fa57204f0296e60c01b610df1565b600361ffff16905090565b60006060610b1d675a65cc4be187d5c260c01b610df1565b610b31675e31b7f01f5033a160c01b610df1565b610b4567ee0b72bd2c2ab2ed60c01b610df1565b6000600160149054906101000a900460ff166001811115610b6957610b686119b3565b5b60006001811115610b7d57610b7c6119b3565b5b149050610b94672765fe95b43970ec60c01b610df1565b610ba8678ba19f0877f0d14860c01b610df1565b60007f000000000000000000000000000000000000000000000000000000000000000060025442610bd991906117d4565b119050610bf067c458b719964e2dff60c01b610df1565b610c046705bafa8f6130318e60c01b610df1565b600080600080549050119050610c24675894a2681fb855fa60c01b610df1565b610c386705d284309221f1a360c01b610df1565b60008047119050610c5367ac4540cbfa4aac5460c01b610df1565b838015610c5d5750825b8015610c665750815b8015610c6f5750805b955050505050915091565b6000610c9067c9318f403b64b28a60c01b610df1565b610ca4674f6cd1edb487212460c01b610df1565b610cb867a910c44a6f5a114560c01b610df1565b7f0000000000000000000000000000000000000000000000000000000000000000905090565b6000610cf467c4200e451a841f5d60c01b610df1565b610d0867c66d6da3013eda5060c01b610df1565b610d1c67e973fd11d0f81ab660c01b610df1565b600254905090565b6000610d3a6782eaddb7e4a89f0160c01b610df1565b610d4e67ce0f81413bffa13460c01b610df1565b610d6267955c4270f8e6d7d960c01b610df1565b60008281548110610d7657610d756119e2565b5b9060005260206000200160009054906101000a900473ffffffffffffffffffffffffffffffffffffffff169050919050565b6000610dbe674dd988570bab7c8f60c01b610df1565b610dd2678531ee987f76136b60c01b610df1565b610de667becb16e5f526920660c01b610df1565b600080549050905090565b50565b610e0867e05343b3c3112b5260c01b610df1565b610e1c67919ba0e40b30190460c01b610df1565b610e306740e8b4177d7d6e9160c01b610df1565b6000808054905082600081518110610e4b57610e4a6119e2565b5b6020026020010151610e5d9190611924565b9050610e7367be097821effbaf9e60c01b610df1565b610e8767ba1253410eebc11160c01b610df1565b6000808281548110610e9c57610e9b6119e2565b5b9060005260206000200160009054906101000a900473ffffffffffffffffffffffffffffffffffffffff169050610edd674534b3d2dd74f3e560c01b610df1565b80600160006101000a81548173ffffffffffffffffffffffffffffffffffffffff021916908373ffffffffffffffffffffffffffffffffffffffff160217905550610f32673bae16ff68984cbb60c01b610df1565b6000600160146101000a81548160ff02191690836001811115610f5857610f576119b3565b5b0217905550610f7167815ecba921d23e0560c01b610df1565b600067ffffffffffffffff811115610f8c57610f8b611a11565b5b604051908082528060200260200182016040528015610fba5781602001602082028036833780820191505090505b5060009080519060200190610fd092919061118d565b50610fe5677abe93a947a72cf560c01b610df1565b4260028190555061100067af501341fd8501f460c01b610df1565b61101467b2bc72492b64b99760c01b610df1565b60008173ffffffffffffffffffffffffffffffffffffffff164760405161103a906115e2565b60006040518083038185875af1925050503d8060008114611077576040519150601f19603f3d011682016040523d82523d6000602084013e61107c565b606091505b5050905061109467d302bde4600ada9b60c01b610df1565b6110a867df279cfdfa50318d60c01b610df1565b80611107576110c16783740f806fce7acd60c01b610df1565b6110d5672b6d837298a2afc460c01b610df1565b6040517fa1d04b3900000000000000000000000000000000000000000000000000000000815260040160405180910390fd5b61111b67faf792452485b9ac60c01b610df1565b61112f672f7e7acd368adfa360c01b610df1565b6111436748644e8910445d2160c01b610df1565b8173ffffffffffffffffffffffffffffffffffffffff167f5b690ec4a06fe979403046eaeea5b3ce38524683c3001f662c8b5a829632f7df60405160405180910390a25050505050565b828054828255906000526020600020908101928215611206579160200282015b828111156112055782518260006101000a81548173ffffffffffffffffffffffffffffffffffffffff021916908373ffffffffffffffffffffffffffffffffffffffff160217905550916020019190600101906111ad565b5b5090506112139190611217565b5090565b5b80821115611230576000816000905550600101611218565b5090565b600061124761124284611750565b61172b565b9050808382526020820190508285602086028201111561126a57611269611a4a565b5b60005b8581101561129a57816112808882611398565b84526020840193506020830192505060018101905061126d565b5050509392505050565b60006112b76112b28461177c565b61172b565b9050828152602081018484840111156112d3576112d2611a4f565b5b6112de8482856118b1565b509392505050565b600082601f8301126112fb576112fa611a45565b5b813561130b848260208601611234565b91505092915050565b60008083601f84011261132a57611329611a45565b5b8235905067ffffffffffffffff81111561134757611346611a40565b5b60208301915083600182028301111561136357611362611a4a565b5b9250929050565b600082601f83011261137f5761137e611a45565b5b813561138f8482602086016112a4565b91505092915050565b6000813590506113a781611a86565b92915050565b6000815190506113bc81611a86565b92915050565b600080602083850312156113d9576113d8611a59565b5b600083013567ffffffffffffffff8111156113f7576113f6611a54565b5b61140385828601611314565b92509250509250929050565b60006020828403121561142557611424611a59565b5b600082013567ffffffffffffffff81111561144357611442611a54565b5b61144f8482850161136a565b91505092915050565b60006020828403121561146e5761146d611a59565b5b600061147c84828501611398565b91505092915050565b60006020828403121561149b5761149a611a59565b5b60006114a9848285016113ad565b91505092915050565b600080604083850312156114c9576114c8611a59565b5b60006114d785828601611398565b925050602083013567ffffffffffffffff8111156114f8576114f7611a54565b5b611504858286016112e6565b9150509250929050565b61151781611808565b82525050565b6115268161181a565b82525050565b61153581611826565b82525050565b6000611546826117ad565b61155081856117b8565b93506115608185602086016118c0565b61156981611a5e565b840191505092915050565b61157d8161189f565b82525050565b60006115906000836117c9565b915061159b82611a6f565b600082019050919050565b6115af81611843565b82525050565b6115be81611871565b82525050565b6115cd8161187b565b82525050565b6115dc8161188b565b82525050565b60006115ed82611583565b9150819050919050565b600060208201905061160c600083018461150e565b92915050565b6000604082019050611627600083018561150e565b611634602083018461150e565b9392505050565b6000604082019050611650600083018561151d565b8181036020830152611662818461153b565b90509392505050565b600060a082019050611680600083018861152c565b61168d60208301876115d3565b61169a60408301866115a6565b6116a760608301856115c4565b6116b460808301846115c4565b9695505050505050565b60006020820190506116d36000830184611574565b92915050565b60006020820190506116ee60008301846115b5565b92915050565b600060608201905061170960008301866115b5565b61171660208301856115b5565b61172360408301846115b5565b949350505050565b6000611735611746565b905061174182826118f3565b919050565b6000604051905090565b600067ffffffffffffffff82111561176b5761176a611a11565b5b602082029050602081019050919050565b600067ffffffffffffffff82111561179757611796611a11565b5b6117a082611a5e565b9050602081019050919050565b600081519050919050565b600082825260208201905092915050565b600081905092915050565b60006117df82611871565b91506117ea83611871565b9250828210156117fd576117fc611955565b5b828203905092915050565b600061181382611851565b9050919050565b60008115159050919050565b6000819050919050565b600081905061183e82611a72565b919050565b600061ffff82169050919050565b600073ffffffffffffffffffffffffffffffffffffffff82169050919050565b6000819050919050565b600063ffffffff82169050919050565b600067ffffffffffffffff82169050919050565b60006118aa82611830565b9050919050565b82818337600083830152505050565b60005b838110156118de5780820151818401526020810190506118c3565b838111156118ed576000848401525b50505050565b6118fc82611a5e565b810181811067ffffffffffffffff8211171561191b5761191a611a11565b5b80604052505050565b600061192f82611871565b915061193a83611871565b92508261194a57611949611984565b5b828206905092915050565b7f4e487b7100000000000000000000000000000000000000000000000000000000600052601160045260246000fd5b7f4e487b7100000000000000000000000000000000000000000000000000000000600052601260045260246000fd5b7f4e487b7100000000000000000000000000000000000000000000000000000000600052602160045260246000fd5b7f4e487b7100000000000000000000000000000000000000000000000000000000600052603260045260246000fd5b7f4e487b7100000000000000000000000000000000000000000000000000000000600052604160045260246000fd5b600080fd5b600080fd5b600080fd5b600080fd5b600080fd5b600080fd5b6000601f19601f8301169050919050565b50565b60028110611a8357611a826119b3565b5b50565b611a8f81611871565b8114611a9a57600080fd5b5056fea2646970667358221220a4abbb814550a64ffb0ab3c511dc5f65dcd5d20c9d74a9c8b3595aaf7dd5103264736f6c63430008070033",
  "linkReferences": {},
  "deployedLinkReferences": {}
}