{
  "_format": "hh-sol-artifact-1",
  "contractName": "Raffle",
  "sourceName": "contracts/Raffle.sol",
  "abi": [
    {
      "inputs": [
        {
          "internalType": "address",
          "name": "vrfCoordinatorV2",
          "type": "address"
        },
        {
          "internalType": "uint256",
          "name": "entranceFee",
          "type": "uint256"
        },
        {
          "internalType": "bytes32",
          "name": "gasLane",
          "type": "bytes32"
        },
        {
          "internalType": "uint64",
          "name": "subscriptionId",
          "type": "uint64"
        },
        {
          "internalType": "uint32",
          "name": "callbackGasLimit",
          "type": "uint32"
        },
        {
          "internalType": "uint256",
          "name": "interval",
          "type": "uint256"
        }
      ],
      "stateMutability": "nonpayable",
      "type": "constructor"
    },
    {
      "inputs": [
        {
          "internalType": "address",
          "name": "have",
          "type": "address"
        },
        {
          "internalType": "address",
          "name": "want",
          "type": "address"
        }
      ],
      "name": "OnlyCoordinatorCanFulfill",
      "type": "error"
    },
    {
      "inputs": [],
      "name": "Raffle__NotEnoughETHEntered",
      "type": "error"
    },
    {
      "inputs": [],
      "name": "Raffle__NotOpen",
      "type": "error"
    },
    {
      "inputs": [],
      "name": "Raffle__TransferFailed",
      "type": "error"
    },
    {
      "inputs": [
        {
          "internalType": "uint256",
          "name": "currentBalance",
          "type": "uint256"
        },
        {
          "internalType": "uint256",
          "name": "numPlayers",
          "type": "uint256"
        },
        {
          "internalType": "uint256",
          "name": "raffleState",
          "type": "uint256"
        }
      ],
      "name": "Raffle__UpkeepNotNeeded",
      "type": "error"
    },
    {
      "anonymous": false,
      "inputs": [
        {
          "indexed": true,
          "internalType": "address",
          "name": "player",
          "type": "address"
        }
      ],
      "name": "RaffleEnter",
      "type": "event"
    },
    {
      "anonymous": false,
      "inputs": [
        {
          "indexed": true,
          "internalType": "uint256",
          "name": "requestId",
          "type": "uint256"
        }
      ],
      "name": "RequestedRaffleWinner",
      "type": "event"
    },
    {
      "anonymous": false,
      "inputs": [
        {
          "indexed": true,
          "internalType": "address",
          "name": "winner",
          "type": "address"
        }
      ],
      "name": "WinnerPicked",
      "type": "event"
    },
    {
      "inputs": [
        {
          "internalType": "bytes",
          "name": "",
          "type": "bytes"
        }
      ],
      "name": "checkUpkeep",
      "outputs": [
        {
          "internalType": "bool",
          "name": "upkeepNeeded",
          "type": "bool"
        },
        {
          "internalType": "bytes",
          "name": "",
          "type": "bytes"
        }
      ],
      "stateMutability": "nonpayable",
      "type": "function"
    },
    {
      "inputs": [],
      "name": "enterRaffle",
      "outputs": [],
      "stateMutability": "payable",
      "type": "function"
    },
    {
      "inputs": [],
      "name": "getEntranceFee",
      "outputs": [
        {
          "internalType": "uint256",
          "name": "",
          "type": "uint256"
        }
      ],
      "stateMutability": "view",
      "type": "function"
    },
    {
      "inputs": [
        {
          "internalType": "uint256",
          "name": "index",
          "type": "uint256"
        }
      ],
      "name": "getPlayer",
      "outputs": [
        {
          "internalType": "address",
          "name": "",
          "type": "address"
        }
      ],
      "stateMutability": "view",
      "type": "function"
    },
    {
      "inputs": [],
      "name": "getRecentWinner",
      "outputs": [
        {
          "internalType": "address",
          "name": "",
          "type": "address"
        }
      ],
      "stateMutability": "view",
      "type": "function"
    },
    {
      "inputs": [
        {
          "internalType": "bytes",
          "name": "",
          "type": "bytes"
        }
      ],
      "name": "performUpkeep",
      "outputs": [],
      "stateMutability": "nonpayable",
      "type": "function"
    },
    {
      "inputs": [],
      "name": "pickRandomWinner",
      "outputs": [],
      "stateMutability": "nonpayable",
      "type": "function"
    },
    {
      "inputs": [
        {
          "internalType": "uint256",
          "name": "requestId",
          "type": "uint256"
        },
        {
          "internalType": "uint256[]",
          "name": "randomWords",
          "type": "uint256[]"
        }
      ],
      "name": "rawFulfillRandomWords",
      "outputs": [],
      "stateMutability": "nonpayable",
      "type": "function"
    }
  ],
  "bytecode": "0x6101606040523480156200001257600080fd5b506040516200162e3803806200162e8339818101604052810190620000389190620001ad565b858073ffffffffffffffffffffffffffffffffffffffff1660808173ffffffffffffffffffffffffffffffffffffffff1660601b81525050508460a081815250508573ffffffffffffffffffffffffffffffffffffffff1660c08173ffffffffffffffffffffffffffffffffffffffff1660601b815250508360e081815250508267ffffffffffffffff166101008167ffffffffffffffff1660c01b815250508163ffffffff166101208163ffffffff1660e01b815250506000600160146101000a81548160ff02191690836001811115620001195762000118620002b5565b5b0217905550426002819055508061014081815250505050505050506200036b565b6000815190506200014b81620002e9565b92915050565b600081519050620001628162000303565b92915050565b60008151905062000179816200031d565b92915050565b600081519050620001908162000337565b92915050565b600081519050620001a78162000351565b92915050565b60008060008060008060c08789031215620001cd57620001cc620002e4565b5b6000620001dd89828a016200013a565b9650506020620001f089828a0162000168565b95505060406200020389828a0162000151565b94505060606200021689828a0162000196565b93505060806200022989828a016200017f565b92505060a06200023c89828a0162000168565b9150509295509295509295565b6000620002568262000267565b9050919050565b6000819050919050565b600073ffffffffffffffffffffffffffffffffffffffff82169050919050565b6000819050919050565b600063ffffffff82169050919050565b600067ffffffffffffffff82169050919050565b7f4e487b7100000000000000000000000000000000000000000000000000000000600052602160045260246000fd5b600080fd5b620002f48162000249565b81146200030057600080fd5b50565b6200030e816200025d565b81146200031a57600080fd5b50565b620003288162000287565b81146200033457600080fd5b50565b620003428162000291565b81146200034e57600080fd5b50565b6200035c81620002a1565b81146200036857600080fd5b50565b60805160601c60a05160c05160601c60e0516101005160c01c6101205160e01c6101405161124e620003e06000396000610687015260006105520152600061052f0152600061050e015260006104d20152600081816101c801526102ae0152600081816101ee0152610242015261124e6000f3fe60806040526004361061007b5760003560e01c8063473f1ddc1161004e578063473f1ddc146101075780636e04ff0d14610132578063898da22914610170578063e55ae4e8146101875761007b565b806309bc33a7146100805780631fe543e3146100ab5780632cfcc539146100d45780634585e33b146100de575b600080fd5b34801561008c57600080fd5b506100956101c4565b6040516100a29190610e8d565b60405180910390f35b3480156100b757600080fd5b506100d260048036038101906100cd9190610c90565b6101ec565b005b6100dc6102ac565b005b3480156100ea57600080fd5b5061010560048036038101906101009190610ba0565b61041b565b005b34801561011357600080fd5b5061011c61061a565b6040516101299190610dc6565b60405180910390f35b34801561013e57600080fd5b5061015960048036038101906101549190610bed565b610644565b604051610167929190610e0a565b60405180910390f35b34801561017c57600080fd5b506101856106f1565b005b34801561019357600080fd5b506101ae60048036038101906101a99190610c36565b6106f3565b6040516101bb9190610dc6565b60405180910390f35b60007f0000000000000000000000000000000000000000000000000000000000000000905090565b7f000000000000000000000000000000000000000000000000000000000000000073ffffffffffffffffffffffffffffffffffffffff163373ffffffffffffffffffffffffffffffffffffffff161461029e57337f00000000000000000000000000000000000000000000000000000000000000006040517f1cf993f4000000000000000000000000000000000000000000000000000000008152600401610295929190610de1565b60405180910390fd5b6102a8828261073a565b5050565b7f0000000000000000000000000000000000000000000000000000000000000000341015610306576040517fbd4e069500000000000000000000000000000000000000000000000000000000815260040160405180910390fd5b6000600181111561031a57610319611142565b5b600160149054906101000a900460ff16600181111561033c5761033b611142565b5b14610373576040517f1425571c00000000000000000000000000000000000000000000000000000000815260040160405180910390fd5b6000339080600181540180825580915050600190039060005260206000200160009091909190916101000a81548173ffffffffffffffffffffffffffffffffffffffff021916908373ffffffffffffffffffffffffffffffffffffffff1602179055503373ffffffffffffffffffffffffffffffffffffffff167f0805e1d667bddb8a95f0f09880cf94f403fb596ce79928d9f29b74203ba284d460405160405180910390a2565b600061043560405180602001604052806000815250610644565b509050806104a45747600080549050600160149054906101000a900460ff16600181111561046657610465611142565b5b6040517f584327aa00000000000000000000000000000000000000000000000000000000815260040161049b93929190610ea8565b60405180910390fd5b60018060146101000a81548160ff021916908360018111156104c9576104c8611142565b5b021790555060007f000000000000000000000000000000000000000000000000000000000000000073ffffffffffffffffffffffffffffffffffffffff16635d3b1d307f00000000000000000000000000000000000000000000000000000000000000007f000000000000000000000000000000000000000000000000000000000000000060037f000000000000000000000000000000000000000000000000000000000000000060016040518663ffffffff1660e01b8152600401610593959493929190610e3a565b602060405180830381600087803b1580156105ad57600080fd5b505af11580156105c1573d6000803e3d6000fd5b505050506040513d601f19601f820116820180604052508101906105e59190610c63565b9050807fcd6e45c8998311cab7e9d4385596cac867e20a0587194b954fa3a731c93ce78b60405160405180910390a250505050565b6000600160009054906101000a900473ffffffffffffffffffffffffffffffffffffffff16905090565b600060606000600160149054906101000a900460ff16600181111561066c5761066b611142565b5b600060018111156106805761067f611142565b5b14905060007f0000000000000000000000000000000000000000000000000000000000000000600254426106b49190610f88565b119050600080600080549050119050600080471190508380156106d45750825b80156106dd5750815b80156106e65750805b955050505050915091565b565b600080828154811061070857610707611171565b5b9060005260206000200160009054906101000a900473ffffffffffffffffffffffffffffffffffffffff169050919050565b600080805490508260008151811061075557610754611171565b5b602002602001015161076791906110b3565b9050600080828154811061077e5761077d611171565b5b9060005260206000200160009054906101000a900473ffffffffffffffffffffffffffffffffffffffff16905080600160006101000a81548173ffffffffffffffffffffffffffffffffffffffff021916908373ffffffffffffffffffffffffffffffffffffffff1602179055506000600160146101000a81548160ff0219169083600181111561081257610811611142565b5b0217905550600067ffffffffffffffff811115610832576108316111a0565b5b6040519080825280602002602001820160405280156108605781602001602082028036833780820191505090505b506000908051906020019061087692919061096b565b504260028190555060008173ffffffffffffffffffffffffffffffffffffffff16476040516108a490610db1565b60006040518083038185875af1925050503d80600081146108e1576040519150601f19603f3d011682016040523d82523d6000602084013e6108e6565b606091505b5050905080610921576040517fa1d04b3900000000000000000000000000000000000000000000000000000000815260040160405180910390fd5b8173ffffffffffffffffffffffffffffffffffffffff167f5b690ec4a06fe979403046eaeea5b3ce38524683c3001f662c8b5a829632f7df60405160405180910390a25050505050565b8280548282559060005260206000209081019282156109e4579160200282015b828111156109e35782518260006101000a81548173ffffffffffffffffffffffffffffffffffffffff021916908373ffffffffffffffffffffffffffffffffffffffff1602179055509160200191906001019061098b565b5b5090506109f191906109f5565b5090565b5b80821115610a0e5760008160009055506001016109f6565b5090565b6000610a25610a2084610f04565b610edf565b90508083825260208201905082856020860282011115610a4857610a476111d9565b5b60005b85811015610a785781610a5e8882610b76565b845260208401935060208301925050600181019050610a4b565b5050509392505050565b6000610a95610a9084610f30565b610edf565b905082815260208101848484011115610ab157610ab06111de565b5b610abc848285611040565b509392505050565b600082601f830112610ad957610ad86111d4565b5b8135610ae9848260208601610a12565b91505092915050565b60008083601f840112610b0857610b076111d4565b5b8235905067ffffffffffffffff811115610b2557610b246111cf565b5b602083019150836001820283011115610b4157610b406111d9565b5b9250929050565b600082601f830112610b5d57610b5c6111d4565b5b8135610b6d848260208601610a82565b91505092915050565b600081359050610b8581611201565b92915050565b600081519050610b9a81611201565b92915050565b60008060208385031215610bb757610bb66111e8565b5b600083013567ffffffffffffffff811115610bd557610bd46111e3565b5b610be185828601610af2565b92509250509250929050565b600060208284031215610c0357610c026111e8565b5b600082013567ffffffffffffffff811115610c2157610c206111e3565b5b610c2d84828501610b48565b91505092915050565b600060208284031215610c4c57610c4b6111e8565b5b6000610c5a84828501610b76565b91505092915050565b600060208284031215610c7957610c786111e8565b5b6000610c8784828501610b8b565b91505092915050565b60008060408385031215610ca757610ca66111e8565b5b6000610cb585828601610b76565b925050602083013567ffffffffffffffff811115610cd657610cd56111e3565b5b610ce285828601610ac4565b9150509250929050565b610cf581610fbc565b82525050565b610d0481610fce565b82525050565b610d1381610fda565b82525050565b6000610d2482610f61565b610d2e8185610f6c565b9350610d3e81856020860161104f565b610d47816111ed565b840191505092915050565b6000610d5f600083610f7d565b9150610d6a826111fe565b600082019050919050565b610d7e81610fe4565b82525050565b610d8d81611012565b82525050565b610d9c8161101c565b82525050565b610dab8161102c565b82525050565b6000610dbc82610d52565b9150819050919050565b6000602082019050610ddb6000830184610cec565b92915050565b6000604082019050610df66000830185610cec565b610e036020830184610cec565b9392505050565b6000604082019050610e1f6000830185610cfb565b8181036020830152610e318184610d19565b90509392505050565b600060a082019050610e4f6000830188610d0a565b610e5c6020830187610da2565b610e696040830186610d75565b610e766060830185610d93565b610e836080830184610d93565b9695505050505050565b6000602082019050610ea26000830184610d84565b92915050565b6000606082019050610ebd6000830186610d84565b610eca6020830185610d84565b610ed76040830184610d84565b949350505050565b6000610ee9610efa565b9050610ef58282611082565b919050565b6000604051905090565b600067ffffffffffffffff821115610f1f57610f1e6111a0565b5b602082029050602081019050919050565b600067ffffffffffffffff821115610f4b57610f4a6111a0565b5b610f54826111ed565b9050602081019050919050565b600081519050919050565b600082825260208201905092915050565b600081905092915050565b6000610f9382611012565b9150610f9e83611012565b925082821015610fb157610fb06110e4565b5b828203905092915050565b6000610fc782610ff2565b9050919050565b60008115159050919050565b6000819050919050565b600061ffff82169050919050565b600073ffffffffffffffffffffffffffffffffffffffff82169050919050565b6000819050919050565b600063ffffffff82169050919050565b600067ffffffffffffffff82169050919050565b82818337600083830152505050565b60005b8381101561106d578082015181840152602081019050611052565b8381111561107c576000848401525b50505050565b61108b826111ed565b810181811067ffffffffffffffff821117156110aa576110a96111a0565b5b80604052505050565b60006110be82611012565b91506110c983611012565b9250826110d9576110d8611113565b5b828206905092915050565b7f4e487b7100000000000000000000000000000000000000000000000000000000600052601160045260246000fd5b7f4e487b7100000000000000000000000000000000000000000000000000000000600052601260045260246000fd5b7f4e487b7100000000000000000000000000000000000000000000000000000000600052602160045260246000fd5b7f4e487b7100000000000000000000000000000000000000000000000000000000600052603260045260246000fd5b7f4e487b7100000000000000000000000000000000000000000000000000000000600052604160045260246000fd5b600080fd5b600080fd5b600080fd5b600080fd5b600080fd5b600080fd5b6000601f19601f8301169050919050565b50565b61120a81611012565b811461121557600080fd5b5056fea2646970667358221220b5ff0f918f0af47697cade3fe3cf91fb8b60f3f9294acee21c345e51e6a62e2e64736f6c63430008070033",
  "linkReferences": {},
  "deployedLinkReferences": {}
}